{
  "transactions": [
    {
      "hash": "0x244af872fccead209d86d733110ea06a1cc0e8500c5fbe3935734e2ad2954c5f",
      "transactionType": "CALL",
      "contractName": null,
      "contractAddress": "0xb6807116b3b1b321a390594e31ecd6e0076f6278",
      "function": "grantRole(bytes32,address)",
      "arguments": [
        "0xafa8499804819c4de3fc4b1a2e9723737c59b02467b5c043939709ac9f066b43",
        "0x36f586A30502AE3afb555b8aA4dCc05d233c2ecE"
      ],
      "transaction": {
        "from": "0xf2f1acbe0ba726fee8d75f3e32900526874740bb",
        "to": "0xb6807116b3b1b321a390594e31ecd6e0076f6278",
        "gas": "0x12fc3",
        "value": "0x0",
        "input": "0x2f2ff15dafa8499804819c4de3fc4b1a2e9723737c59b02467b5c043939709ac9f066b4300000000000000000000000036f586a30502ae3afb555b8aa4dcc05d233c2ece",
        "nonce": "0x2b",
        "chainId": "0x1700"
      },
      "additionalContracts": [],
      "isFixedGasLimit": false
    },
    {
      "hash": "0x28b69d81aea8ed0f0425101e3dda9fedfae0574dee84d9f72465b35ff05b2f0c",
      "transactionType": "CALL",
      "contractName": null,
      "contractAddress": "0xb6807116b3b1b321a390594e31ecd6e0076f6278",
      "function": "setTrustedRouter(address,bool)",
      "arguments": ["0x36f586A30502AE3afb555b8aA4dCc05d233c2ecE", "true"],
      "transaction": {
        "from": "0xf2f1acbe0ba726fee8d75f3e32900526874740bb",
        "to": "0xb6807116b3b1b321a390594e31ecd6e0076f6278",
        "gas": "0x11efa",
        "value": "0x0",
        "input": "0xc64f535100000000000000000000000036f586a30502ae3afb555b8aa4dcc05d233c2ece0000000000000000000000000000000000000000000000000000000000000001",
        "nonce": "0x2c",
        "chainId": "0x1700"
      },
      "additionalContracts": [],
      "isFixedGasLimit": false
    }
  ],
  "receipts": [
    {
      "status": "0x1",
      "cumulativeGasUsed": "0xdbec",
      "logs": [
        {
          "address": "0xb6807116b3b1b321a390594e31ecd6e0076f6278",
          "topics": [
            "0x2f8788117e7eff1d82e926ec794901d17c78024a50270940304540a733656f0d",
            "0xafa8499804819c4de3fc4b1a2e9723737c59b02467b5c043939709ac9f066b43",
            "0x00000000000000000000000036f586a30502ae3afb555b8aa4dcc05d233c2ece",
            "0x000000000000000000000000f2f1acbe0ba726fee8d75f3e32900526874740bb"
          ],
          "data": "0x",
          "blockHash": "0xd66340be268ad1c2e3760fe963c625d01b4277f5dbdebfe0be0cbc65c14d6952",
          "blockNumber": "0x926eee",
          "blockTimestamp": "0x0",
          "transactionHash": "0x244af872fccead209d86d733110ea06a1cc0e8500c5fbe3935734e2ad2954c5f",
          "transactionIndex": "0x0",
          "logIndex": "0x0",
          "removed": false
        }
      ],
      "logsBloom": "0x00000004100000000000000000000000000000000000000400000000040000000000000000000000000000000000200000000000000000000000000000000000000000000000000000000000000080010000000000000000000000000000000000000000000000000000000000000000000000000000004000000000000000000000000000000000040000000000000000000000000000000000000000000000000000000000000000010000000000000000000000000000001400000000000000000000000000000000000000000000000000000100000100000000000000000000000000000000000000000000000000000000000004000000000000000000",
      "type": "0x2",
      "transactionHash": "0x244af872fccead209d86d733110ea06a1cc0e8500c5fbe3935734e2ad2954c5f",
      "transactionIndex": "0x0",
      "blockHash": "0xd66340be268ad1c2e3760fe963c625d01b4277f5dbdebfe0be0cbc65c14d6952",
      "blockNumber": "0x926eee",
      "gasUsed": "0xdbec",
      "effectiveGasPrice": "0x2e19b83c0",
      "from": "0xf2f1acbe0ba726fee8d75f3e32900526874740bb",
      "to": "0xb6807116b3b1b321a390594e31ecd6e0076f6278",
      "contractAddress": null
    },
    {
      "status": "0x1",
      "cumulativeGasUsed": "0xcfc5",
      "logs": [
        {
          "address": "0xb6807116b3b1b321a390594e31ecd6e0076f6278",
          "topics": [
            "0xf03b9904b8234e041267377d7a55ddb345d1ee737d0116a2e621e3a5fad07a7d",
            "0x00000000000000000000000036f586a30502ae3afb555b8aa4dcc05d233c2ece"
          ],
          "data": "0x0000000000000000000000000000000000000000000000000000000000000001",
          "blockHash": "0x96be6b7f77d105e66f7f3fff347e0ba962ad7370549cd322f10effc791c76db8",
          "blockNumber": "0x926eef",
          "blockTimestamp": "0x0",
          "transactionHash": "0x28b69d81aea8ed0f0425101e3dda9fedfae0574dee84d9f72465b35ff05b2f0c",
          "transactionIndex": "0x0",
          "logIndex": "0x0",
          "removed": false
        }
      ],
      "logsBloom": "0x00000000000000000000000000000000000000000000000000000000040000000000000400000008000000000000000000000000000000000000000000000000000000000000000000000000000000010000000000000000000000000000000000000000000000000000000001000000000000000000004000000000000000000000000000000000040000000000000000000000000000000000000000000000000000000000000000010000000000000000000000000000000000000000000000000000000000000000000000000000000000000000000000000000000000000000000000000000000000000000000000000000000004000000000000000000",
      "type": "0x2",
      "transactionHash": "0x28b69d81aea8ed0f0425101e3dda9fedfae0574dee84d9f72465b35ff05b2f0c",
      "transactionIndex": "0x0",
      "blockHash": "0x96be6b7f77d105e66f7f3fff347e0ba962ad7370549cd322f10effc791c76db8",
      "blockNumber": "0x926eef",
      "gasUsed": "0xcfc5",
      "effectiveGasPrice": "0x2e19b83c0",
      "from": "0xf2f1acbe0ba726fee8d75f3e32900526874740bb",
      "to": "0xb6807116b3b1b321a390594e31ecd6e0076f6278",
      "contractAddress": null
    }
  ],
  "libraries": [],
  "pending": [],
  "returns": {},
  "timestamp": 1761331909,
  "chain": 5888,
  "commit": "4cd4bc7"
}
