{
  "transactions": [
    {
      "hash": "0x7b12a0f1789b19d0383e9695a67dbe9202582181f4c39c1e9f7c15b87ede7de2",
      "transactionType": "CALL",
      "contractName": "ProxyAdmin",
      "contractAddress": "0x0f38d8a5583f9316084e9c40737244870c565924",
      "function": "transferOwnership(address)",
      "arguments": ["0xdcf79C332cB3Fe9d39A830a5f8de7cE6b1BD6fD1"],
      "transaction": {
        "from": "0xf2f1acbe0ba726fee8d75f3e32900526874740bb",
        "to": "0x0f38d8a5583f9316084e9c40737244870c565924",
        "gas": "0x99f6",
        "value": "0x0",
        "input": "0xf2fde38b000000000000000000000000dcf79c332cb3fe9d39a830a5f8de7ce6b1bd6fd1",
        "nonce": "0xe1",
        "chainId": "0x1"
      },
      "additionalContracts": [],
      "isFixedGasLimit": false
    }
  ],
  "receipts": [
    {
      "status": "0x1",
      "cumulativeGasUsed": "0x11a2272",
      "logs": [
        {
          "address": "0x0f38d8a5583f9316084e9c40737244870c565924",
          "topics": [
            "0x8be0079c531659141344cd1fd0a4f28419497f9722a3daafe3b4186f6b6457e0",
            "0x000000000000000000000000f2f1acbe0ba726fee8d75f3e32900526874740bb",
            "0x000000000000000000000000dcf79c332cb3fe9d39a830a5f8de7ce6b1bd6fd1"
          ],
          "data": "0x",
          "blockHash": "0xd814fab7955df05649a1a5b56c1f14baa720d5925b658a34d87ecfa09e3f6d5c",
          "blockNumber": "0x16726aa",
          "blockTimestamp": "0x68e7237f",
          "transactionHash": "0x7b12a0f1789b19d0383e9695a67dbe9202582181f4c39c1e9f7c15b87ede7de2",
          "transactionIndex": "0xa6",
          "logIndex": "0x1b6",
          "removed": false
        }
      ],
      "logsBloom": "0x00000000000000000000000020000000000000000000000400800000000000000000000000000000000000000000200000000000000000000000000000000000002000000000000000000000000010000001000000000000000000000000000000000000000000000000000000000000000020000000000000000000000000400000000080000000000000000000000000000000000000000000000000000000000000000000000000000000000000040000000000000000000400000000000000000000000000000000000000000000000000000000000000000000000000000000000000000000000000000000000000000000000000000000000000000000",
      "type": "0x2",
      "transactionHash": "0x7b12a0f1789b19d0383e9695a67dbe9202582181f4c39c1e9f7c15b87ede7de2",
      "transactionIndex": "0xa6",
      "blockHash": "0xd814fab7955df05649a1a5b56c1f14baa720d5925b658a34d87ecfa09e3f6d5c",
      "blockNumber": "0x16726aa",
      "gasUsed": "0x6f78",
      "effectiveGasPrice": "0xbee7dc9",
      "from": "0xf2f1acbe0ba726fee8d75f3e32900526874740bb",
      "to": "0x0f38d8a5583f9316084e9c40737244870c565924",
      "contractAddress": null
    }
  ],
  "libraries": [],
  "pending": [],
  "returns": {},
  "timestamp": 1759978370,
  "chain": 1,
  "commit": "b978779"
}
