{
  "transactions": [
    {
      "hash": "0x857f4203996768ea6881f60343bceb6b5ba54aa1f72bd482c41a826c8fbf1515",
      "transactionType": "CALL",
      "contractName": null,
      "contractAddress": "0xb6807116b3b1b321a390594e31ecd6e0076f6278",
      "function": "grantRole(bytes32,address)",
      "arguments": [
        "0xafa8499804819c4de3fc4b1a2e9723737c59b02467b5c043939709ac9f066b43",
        "0xD925C84b55E4e44a53749fF5F2a5A13F63D128fd"
      ],
      "transaction": {
        "from": "0xf2f1acbe0ba726fee8d75f3e32900526874740bb",
        "to": "0xb6807116b3b1b321a390594e31ecd6e0076f6278",
        "gas": "0x12fc3",
        "value": "0x0",
        "input": "0x2f2ff15dafa8499804819c4de3fc4b1a2e9723737c59b02467b5c043939709ac9f066b43000000000000000000000000d925c84b55e4e44a53749ff5f2a5a13f63d128fd",
        "nonce": "0x34",
        "chainId": "0x14a34"
      },
      "additionalContracts": [],
      "isFixedGasLimit": false
    },
    {
      "hash": "0x0086d92813a3065f517e027dec076ec5d3d77434d52242d94d180ab64aab39bf",
      "transactionType": "CALL",
      "contractName": null,
      "contractAddress": "0xb6807116b3b1b321a390594e31ecd6e0076f6278",
      "function": "setTrustedRouter(address,bool)",
      "arguments": ["0xD925C84b55E4e44a53749fF5F2a5A13F63D128fd", "true"],
      "transaction": {
        "from": "0xf2f1acbe0ba726fee8d75f3e32900526874740bb",
        "to": "0xb6807116b3b1b321a390594e31ecd6e0076f6278",
        "gas": "0x11efa",
        "value": "0x0",
        "input": "0xc64f5351000000000000000000000000d925c84b55e4e44a53749ff5f2a5a13f63d128fd0000000000000000000000000000000000000000000000000000000000000001",
        "nonce": "0x35",
        "chainId": "0x14a34"
      },
      "additionalContracts": [],
      "isFixedGasLimit": false
    },
    {
      "hash": "0xc4c5f56f5642655ee5caa1a28adf992405dc143db8bd842b537c18cbe1355360",
      "transactionType": "CALL",
      "contractName": null,
      "contractAddress": "0xb6807116b3b1b321a390594e31ecd6e0076f6278",
      "function": "grantRole(bytes32,address)",
      "arguments": [
        "0x0000000000000000000000000000000000000000000000000000000000000000",
        "0xdcf79C332cB3Fe9d39A830a5f8de7cE6b1BD6fD1"
      ],
      "transaction": {
        "from": "0xf2f1acbe0ba726fee8d75f3e32900526874740bb",
        "to": "0xb6807116b3b1b321a390594e31ecd6e0076f6278",
        "gas": "0x12db1",
        "value": "0x0",
        "input": "0x2f2ff15d0000000000000000000000000000000000000000000000000000000000000000000000000000000000000000dcf79c332cb3fe9d39a830a5f8de7ce6b1bd6fd1",
        "nonce": "0x36",
        "chainId": "0x14a34"
      },
      "additionalContracts": [],
      "isFixedGasLimit": false
    },
    {
      "hash": "0xa45126cc4984cf7c71a022bf786184bc8dbe8d8d26592370b7ef7c27bd6e459e",
      "transactionType": "CALL",
      "contractName": null,
      "contractAddress": "0xb6807116b3b1b321a390594e31ecd6e0076f6278",
      "function": "renounceRole(bytes32,address)",
      "arguments": [
        "0x0000000000000000000000000000000000000000000000000000000000000000",
        "0xF2f1ACbe0BA726fEE8d75f3E32900526874740BB"
      ],
      "transaction": {
        "from": "0xf2f1acbe0ba726fee8d75f3e32900526874740bb",
        "to": "0xb6807116b3b1b321a390594e31ecd6e0076f6278",
        "gas": "0xa8a8",
        "value": "0x0",
        "input": "0x36568abe0000000000000000000000000000000000000000000000000000000000000000000000000000000000000000f2f1acbe0ba726fee8d75f3e32900526874740bb",
        "nonce": "0x37",
        "chainId": "0x14a34"
      },
      "additionalContracts": [],
      "isFixedGasLimit": false
    },
    {
      "hash": "0x0f41fd13ac5b7ece8381783a883742e8fcc3c3f3a438717e8bc503cc7a5a166f",
      "transactionType": "CALL",
      "contractName": null,
      "contractAddress": "0x0f38d8a5583f9316084e9c40737244870c565924",
      "function": "transferOwnership(address)",
      "arguments": ["0xdcf79C332cB3Fe9d39A830a5f8de7cE6b1BD6fD1"],
      "transaction": {
        "from": "0xf2f1acbe0ba726fee8d75f3e32900526874740bb",
        "to": "0x0f38d8a5583f9316084e9c40737244870c565924",
        "gas": "0x99f6",
        "value": "0x0",
        "input": "0xf2fde38b000000000000000000000000dcf79c332cb3fe9d39a830a5f8de7ce6b1bd6fd1",
        "nonce": "0x38",
        "chainId": "0x14a34"
      },
      "additionalContracts": [],
      "isFixedGasLimit": false
    }
  ],
  "receipts": [
    {
      "status": "0x1",
      "cumulativeGasUsed": "0x601727",
      "logs": [
        {
          "address": "0xb6807116b3b1b321a390594e31ecd6e0076f6278",
          "topics": [
            "0x2f8788117e7eff1d82e926ec794901d17c78024a50270940304540a733656f0d",
            "0xafa8499804819c4de3fc4b1a2e9723737c59b02467b5c043939709ac9f066b43",
            "0x000000000000000000000000d925c84b55e4e44a53749ff5f2a5a13f63d128fd",
            "0x000000000000000000000000f2f1acbe0ba726fee8d75f3e32900526874740bb"
          ],
          "data": "0x",
          "blockHash": "0xa4143a311cc40c1a00d16b8d0b0599adcdea65537104ba5bcb08af84b1bda74c",
          "blockNumber": "0x1f86bdf",
          "blockTimestamp": "0x6904369e",
          "transactionHash": "0x857f4203996768ea6881f60343bceb6b5ba54aa1f72bd482c41a826c8fbf1515",
          "transactionIndex": "0x1e",
          "logIndex": "0xee",
          "removed": false
        }
      ],
      "logsBloom": "0x00000004100000000000000000000000000000000000000400000000040000000000000000000000000000000000200000000000000000000000000000000000000000000000000000000000000080010000000000000000000000004000000000000000000000000000000000000000000200000000000000000000000000000100000000000000040000000000000000000000000000000000000000000000000000000000000000000000000000000000000000000000001400000000000000000000000000000000000000000000000000000100000100000000000000000000000000000000000000000000000000000000000000000000000000000000",
      "type": "0x2",
      "transactionHash": "0x857f4203996768ea6881f60343bceb6b5ba54aa1f72bd482c41a826c8fbf1515",
      "transactionIndex": "0x1e",
      "blockHash": "0xa4143a311cc40c1a00d16b8d0b0599adcdea65537104ba5bcb08af84b1bda74c",
      "blockNumber": "0x1f86bdf",
      "gasUsed": "0xdbec",
      "effectiveGasPrice": "0xf07ea",
      "from": "0xf2f1acbe0ba726fee8d75f3e32900526874740bb",
      "to": "0xb6807116b3b1b321a390594e31ecd6e0076f6278",
      "contractAddress": null,
      "l1BaseFeeScalar": "0x44d",
      "l1BlobBaseFee": "0x1",
      "l1BlobBaseFeeScalar": "0xa118b",
      "l1Fee": "0x50",
      "l1GasPrice": "0x8",
      "l1GasUsed": "0x6a4"
    },
    {
      "status": "0x1",
      "cumulativeGasUsed": "0x3bc6ae",
      "logs": [
        {
          "address": "0xb6807116b3b1b321a390594e31ecd6e0076f6278",
          "topics": [
            "0xf03b9904b8234e041267377d7a55ddb345d1ee737d0116a2e621e3a5fad07a7d",
            "0x000000000000000000000000d925c84b55e4e44a53749ff5f2a5a13f63d128fd"
          ],
          "data": "0x0000000000000000000000000000000000000000000000000000000000000001",
          "blockHash": "0xa6e194b4a8179491cb8373903ea030da8afdec77a46815e7b84f349d2438f7d2",
          "blockNumber": "0x1f86be0",
          "blockTimestamp": "0x690436a0",
          "transactionHash": "0x0086d92813a3065f517e027dec076ec5d3d77434d52242d94d180ab64aab39bf",
          "transactionIndex": "0x1a",
          "logIndex": "0x36",
          "removed": false
        }
      ],
      "logsBloom": "0x00000000000000000000000000000000000000000000000000000000040000000000000400000008000000000000000000000000000000000000000000000000000000000000000000000000000000010000000000000000000000004000000000000000000000000000000001000000000200000000000000000000000000000100000000000000040000000000000000000000000000000000000000000000000000000000000000000000000000000000000000000000000000000000000000000000000000000000000000000000000000000000000000000000000000000000000000000000000000000000000000000000000000000000000000000000",
      "type": "0x2",
      "transactionHash": "0x0086d92813a3065f517e027dec076ec5d3d77434d52242d94d180ab64aab39bf",
      "transactionIndex": "0x1a",
      "blockHash": "0xa6e194b4a8179491cb8373903ea030da8afdec77a46815e7b84f349d2438f7d2",
      "blockNumber": "0x1f86be0",
      "gasUsed": "0xcfc5",
      "effectiveGasPrice": "0xf07ea",
      "from": "0xf2f1acbe0ba726fee8d75f3e32900526874740bb",
      "to": "0xb6807116b3b1b321a390594e31ecd6e0076f6278",
      "contractAddress": null,
      "l1BaseFeeScalar": "0x44d",
      "l1BlobBaseFee": "0x1",
      "l1BlobBaseFeeScalar": "0xa118b",
      "l1Fee": "0x50",
      "l1GasPrice": "0x8",
      "l1GasUsed": "0x640"
    },
    {
      "status": "0x1",
      "cumulativeGasUsed": "0x9bc50d",
      "logs": [
        {
          "address": "0xb6807116b3b1b321a390594e31ecd6e0076f6278",
          "topics": [
            "0x2f8788117e7eff1d82e926ec794901d17c78024a50270940304540a733656f0d",
            "0x0000000000000000000000000000000000000000000000000000000000000000",
            "0x000000000000000000000000dcf79c332cb3fe9d39a830a5f8de7ce6b1bd6fd1",
            "0x000000000000000000000000f2f1acbe0ba726fee8d75f3e32900526874740bb"
          ],
          "data": "0x",
          "blockHash": "0x6a85b3f9ac70916a7a46fe1811b7a2385b19d24925dc8224d2a3cecca44af352",
          "blockNumber": "0x1f86be1",
          "blockTimestamp": "0x690436a2",
          "transactionHash": "0xc4c5f56f5642655ee5caa1a28adf992405dc143db8bd842b537c18cbe1355360",
          "transactionIndex": "0x10",
          "logIndex": "0x122",
          "removed": false
        }
      ],
      "logsBloom": "0x00000004000000000000000020000000000000000000000400000000040000000000000000000000000000000000200000000000000000000000000000000000000000000000000000000000000000010000000000000000000000000000000000000000020000000000000000000800000000000000000000000000000000000000000080000000040000000000000000000000000000000000000000000000000000000000000000000000000000040000000000000000001400000000000000000000000000000000000000000000000000000000000100000000000020000000000000000000000000000000000000000000000000000000000000000000",
      "type": "0x2",
      "transactionHash": "0xc4c5f56f5642655ee5caa1a28adf992405dc143db8bd842b537c18cbe1355360",
      "transactionIndex": "0x10",
      "blockHash": "0x6a85b3f9ac70916a7a46fe1811b7a2385b19d24925dc8224d2a3cecca44af352",
      "blockNumber": "0x1f86be1",
      "gasUsed": "0xda6c",
      "effectiveGasPrice": "0xf07ea",
      "from": "0xf2f1acbe0ba726fee8d75f3e32900526874740bb",
      "to": "0xb6807116b3b1b321a390594e31ecd6e0076f6278",
      "contractAddress": null,
      "l1BaseFeeScalar": "0x44d",
      "l1BlobBaseFee": "0x1",
      "l1BlobBaseFeeScalar": "0xa118b",
      "l1Fee": "0x50",
      "l1GasPrice": "0x8",
      "l1GasUsed": "0x640"
    },
    {
      "status": "0x1",
      "cumulativeGasUsed": "0x192b98",
      "logs": [
        {
          "address": "0xb6807116b3b1b321a390594e31ecd6e0076f6278",
          "topics": [
            "0xf6391f5c32d9c69d2a47ea670b442974b53935d1edc7fd64eb21e047a839171b",
            "0x0000000000000000000000000000000000000000000000000000000000000000",
            "0x000000000000000000000000f2f1acbe0ba726fee8d75f3e32900526874740bb",
            "0x000000000000000000000000f2f1acbe0ba726fee8d75f3e32900526874740bb"
          ],
          "data": "0x",
          "blockHash": "0xfee1737cc2d59713e02ea29cc36dcb2384bcc603e709d30ba8160e69c5007147",
          "blockNumber": "0x1f86be4",
          "blockTimestamp": "0x690436a8",
          "transactionHash": "0xa45126cc4984cf7c71a022bf786184bc8dbe8d8d26592370b7ef7c27bd6e459e",
          "transactionIndex": "0xc",
          "logIndex": "0x36",
          "removed": false
        }
      ],
      "logsBloom": "0x00000000000000000000000000000000000000000000000400000000040000000000000000000000000000000000200000200000000000000000000000000000000000000000000000000000000000010000000000000000000000000000000040000000020000000000000000000800000000000000000000000000000000000000000040000000040000000000000000000000000000000000000000000000000000000000000000000000000000000000000000000000000400000000000000000000000000000000000000000000000000000000000000000000000020000000000000000000000000000000000000000000000000000000000000000000",
      "type": "0x2",
      "transactionHash": "0xa45126cc4984cf7c71a022bf786184bc8dbe8d8d26592370b7ef7c27bd6e459e",
      "transactionIndex": "0xc",
      "blockHash": "0xfee1737cc2d59713e02ea29cc36dcb2384bcc603e709d30ba8160e69c5007147",
      "blockNumber": "0x1f86be4",
      "gasUsed": "0x7353",
      "effectiveGasPrice": "0xf07e9",
      "from": "0xf2f1acbe0ba726fee8d75f3e32900526874740bb",
      "to": "0xb6807116b3b1b321a390594e31ecd6e0076f6278",
      "contractAddress": null,
      "l1BaseFeeScalar": "0x44d",
      "l1BlobBaseFee": "0x1",
      "l1BlobBaseFeeScalar": "0xa118b",
      "l1Fee": "0x50",
      "l1GasPrice": "0x8",
      "l1GasUsed": "0x640"
    },
    {
      "status": "0x1",
      "cumulativeGasUsed": "0x98c38f",
      "logs": [
        {
          "address": "0x0f38d8a5583f9316084e9c40737244870c565924",
          "topics": [
            "0x8be0079c531659141344cd1fd0a4f28419497f9722a3daafe3b4186f6b6457e0",
            "0x000000000000000000000000f2f1acbe0ba726fee8d75f3e32900526874740bb",
            "0x000000000000000000000000dcf79c332cb3fe9d39a830a5f8de7ce6b1bd6fd1"
          ],
          "data": "0x",
          "blockHash": "0x54bf0dbb288b14d80033767abac18582c6a924098d8945c5a29775aea8d15baf",
          "blockNumber": "0x1f86be5",
          "blockTimestamp": "0x690436aa",
          "transactionHash": "0x0f41fd13ac5b7ece8381783a883742e8fcc3c3f3a438717e8bc503cc7a5a166f",
          "transactionIndex": "0x24",
          "logIndex": "0xe7",
          "removed": false
        }
      ],
      "logsBloom": "0x00000000000000000000000020000000000000000000000400800000000000000000000000000000000000000000200000000000000000000000000000000000002000000000000000000000000010000001000000000000000000000000000000000000000000000000000000000000000020000000000000000000000000400000000080000000000000000000000000000000000000000000000000000000000000000000000000000000000000040000000000000000000400000000000000000000000000000000000000000000000000000000000000000000000000000000000000000000000000000000000000000000000000000000000000000000",
      "type": "0x2",
      "transactionHash": "0x0f41fd13ac5b7ece8381783a883742e8fcc3c3f3a438717e8bc503cc7a5a166f",
      "transactionIndex": "0x24",
      "blockHash": "0x54bf0dbb288b14d80033767abac18582c6a924098d8945c5a29775aea8d15baf",
      "blockNumber": "0x1f86be5",
      "gasUsed": "0x6f78",
      "effectiveGasPrice": "0xf07e9",
      "from": "0xf2f1acbe0ba726fee8d75f3e32900526874740bb",
      "to": "0x0f38d8a5583f9316084e9c40737244870c565924",
      "contractAddress": null,
      "l1BaseFeeScalar": "0x44d",
      "l1BlobBaseFee": "0x1",
      "l1BlobBaseFeeScalar": "0xa118b",
      "l1Fee": "0x50",
      "l1GasPrice": "0x8",
      "l1GasUsed": "0x640"
    }
  ],
  "libraries": [],
  "pending": [],
  "returns": {},
  "timestamp": 1761883817,
  "chain": 84532,
  "commit": "1176188"
}
