{
  "transactions": [
    {
      "hash": "0xf54d31b94b0b3391e42b7f0c8764895511b737c21f8b67f99b346293cb404913",
      "transactionType": "CALL",
      "contractName": null,
      "contractAddress": "0xb6807116b3b1b321a390594e31ecd6e0076f6278",
      "function": "grantRole(bytes32,address)",
      "arguments": [
        "0xafa8499804819c4de3fc4b1a2e9723737c59b02467b5c043939709ac9f066b43",
        "0x36f586A30502AE3afb555b8aA4dCc05d233c2ecE"
      ],
      "transaction": {
        "from": "0xf2f1acbe0ba726fee8d75f3e32900526874740bb",
        "to": "0xb6807116b3b1b321a390594e31ecd6e0076f6278",
        "gas": "0x12fc3",
        "value": "0x0",
        "input": "0x2f2ff15dafa8499804819c4de3fc4b1a2e9723737c59b02467b5c043939709ac9f066b4300000000000000000000000036f586a30502ae3afb555b8aa4dcc05d233c2ece",
        "nonce": "0xe",
        "chainId": "0x38"
      },
      "additionalContracts": [],
      "isFixedGasLimit": false
    },
    {
      "hash": "0x5bf1943b5503fe48885b963b50a6360e37fec88526e4259e711f2db8eef00890",
      "transactionType": "CALL",
      "contractName": null,
      "contractAddress": "0xb6807116b3b1b321a390594e31ecd6e0076f6278",
      "function": "setTrustedRouter(address,bool)",
      "arguments": ["0x36f586A30502AE3afb555b8aA4dCc05d233c2ecE", "true"],
      "transaction": {
        "from": "0xf2f1acbe0ba726fee8d75f3e32900526874740bb",
        "to": "0xb6807116b3b1b321a390594e31ecd6e0076f6278",
        "gas": "0x11efa",
        "value": "0x0",
        "input": "0xc64f535100000000000000000000000036f586a30502ae3afb555b8aa4dcc05d233c2ece0000000000000000000000000000000000000000000000000000000000000001",
        "nonce": "0xf",
        "chainId": "0x38"
      },
      "additionalContracts": [],
      "isFixedGasLimit": false
    }
  ],
  "receipts": [
    {
      "status": "0x1",
      "cumulativeGasUsed": "0x163dbcd",
      "logs": [
        {
          "address": "0xb6807116b3b1b321a390594e31ecd6e0076f6278",
          "topics": [
            "0x2f8788117e7eff1d82e926ec794901d17c78024a50270940304540a733656f0d",
            "0xafa8499804819c4de3fc4b1a2e9723737c59b02467b5c043939709ac9f066b43",
            "0x00000000000000000000000036f586a30502ae3afb555b8aa4dcc05d233c2ece",
            "0x000000000000000000000000f2f1acbe0ba726fee8d75f3e32900526874740bb"
          ],
          "data": "0x",
          "blockHash": "0xd505c1b5b1ff2080a6bc2638deda411eb9c90e9655c8c655ab02fec9934b6787",
          "blockNumber": "0x3ce00ca",
          "transactionHash": "0xf54d31b94b0b3391e42b7f0c8764895511b737c21f8b67f99b346293cb404913",
          "transactionIndex": "0x96",
          "logIndex": "0x314",
          "removed": false
        }
      ],
      "logsBloom": "0x00000004100000000000000000000000000000000000000400000000040000000000000000000000000000000000200000000000000000000000000000000000000000000000000000000000000080010000000000000000000000000000000000000000000000000000000000000000000000000000004000000000000000000000000000000000040000000000000000000000000000000000000000000000000000000000000000010000000000000000000000000000001400000000000000000000000000000000000000000000000000000100000100000000000000000000000000000000000000000000000000000000000004000000000000000000",
      "type": "0x0",
      "transactionHash": "0xf54d31b94b0b3391e42b7f0c8764895511b737c21f8b67f99b346293cb404913",
      "transactionIndex": "0x96",
      "blockHash": "0xd505c1b5b1ff2080a6bc2638deda411eb9c90e9655c8c655ab02fec9934b6787",
      "blockNumber": "0x3ce00ca",
      "gasUsed": "0xdbec",
      "effectiveGasPrice": "0x2faf080",
      "from": "0xf2f1acbe0ba726fee8d75f3e32900526874740bb",
      "to": "0xb6807116b3b1b321a390594e31ecd6e0076f6278",
      "contractAddress": null
    },
    {
      "status": "0x1",
      "cumulativeGasUsed": "0x191a77c",
      "logs": [
        {
          "address": "0xb6807116b3b1b321a390594e31ecd6e0076f6278",
          "topics": [
            "0xf03b9904b8234e041267377d7a55ddb345d1ee737d0116a2e621e3a5fad07a7d",
            "0x00000000000000000000000036f586a30502ae3afb555b8aa4dcc05d233c2ece"
          ],
          "data": "0x0000000000000000000000000000000000000000000000000000000000000001",
          "blockHash": "0x870b2963b506263ed7f319774e240b63060e3d49e49296f671696604cc873daf",
          "blockNumber": "0x3ce00cd",
          "transactionHash": "0x5bf1943b5503fe48885b963b50a6360e37fec88526e4259e711f2db8eef00890",
          "transactionIndex": "0xa0",
          "logIndex": "0x317",
          "removed": false
        }
      ],
      "logsBloom": "0x00000000000000000000000000000000000000000000000000000000040000000000000400000008000000000000000000000000000000000000000000000000000000000000000000000000000000010000000000000000000000000000000000000000000000000000000001000000000000000000004000000000000000000000000000000000040000000000000000000000000000000000000000000000000000000000000000010000000000000000000000000000000000000000000000000000000000000000000000000000000000000000000000000000000000000000000000000000000000000000000000000000000004000000000000000000",
      "type": "0x0",
      "transactionHash": "0x5bf1943b5503fe48885b963b50a6360e37fec88526e4259e711f2db8eef00890",
      "transactionIndex": "0xa0",
      "blockHash": "0x870b2963b506263ed7f319774e240b63060e3d49e49296f671696604cc873daf",
      "blockNumber": "0x3ce00cd",
      "gasUsed": "0xcfc5",
      "effectiveGasPrice": "0x2faf080",
      "from": "0xf2f1acbe0ba726fee8d75f3e32900526874740bb",
      "to": "0xb6807116b3b1b321a390594e31ecd6e0076f6278",
      "contractAddress": null
    }
  ],
  "libraries": [],
  "pending": [],
  "returns": {},
  "timestamp": 1759873537,
  "chain": 56,
  "commit": "b978779"
}
