{
  "transactions": [
    {
      "hash": "0x483f2506b55c264cf7f98b9279ea8429c55b0d8e5c48c24e3d0035ae27da6b5e",
      "transactionType": "CALL",
      "contractName": "TransparentUpgradeableProxy",
      "contractAddress": "0xb6807116b3b1b321a390594e31ecd6e0076f6278",
      "function": null,
      "arguments": null,
      "transaction": {
        "from": "0xf2f1acbe0ba726fee8d75f3e32900526874740bb",
        "to": "0xb6807116b3b1b321a390594e31ecd6e0076f6278",
        "gas": "0x12db1",
        "value": "0x0",
        "input": "0x2f2ff15d0000000000000000000000000000000000000000000000000000000000000000000000000000000000000000dcf79c332cb3fe9d39a830a5f8de7ce6b1bd6fd1",
        "nonce": "0x3c",
        "chainId": "0x38"
      },
      "additionalContracts": [],
      "isFixedGasLimit": false
    },
    {
      "hash": "0x5492e48acb5287da0325858ebf2f6ccb130421e4acb5f511067ccb883156a4c6",
      "transactionType": "CALL",
      "contractName": "TransparentUpgradeableProxy",
      "contractAddress": "0xb6807116b3b1b321a390594e31ecd6e0076f6278",
      "function": null,
      "arguments": null,
      "transaction": {
        "from": "0xf2f1acbe0ba726fee8d75f3e32900526874740bb",
        "to": "0xb6807116b3b1b321a390594e31ecd6e0076f6278",
        "gas": "0xa8a8",
        "value": "0x0",
        "input": "0x36568abe0000000000000000000000000000000000000000000000000000000000000000000000000000000000000000f2f1acbe0ba726fee8d75f3e32900526874740bb",
        "nonce": "0x3d",
        "chainId": "0x38"
      },
      "additionalContracts": [],
      "isFixedGasLimit": false
    },
    {
      "hash": "0xd6be7b4a8b85b1cb6d5e8d72fc7b5f0ff3a9fc44e2ad8d26cb303bfac7630076",
      "transactionType": "CALL",
      "contractName": "ProxyAdmin",
      "contractAddress": "0x0f38d8a5583f9316084e9c40737244870c565924",
      "function": "transferOwnership(address)",
      "arguments": ["0xdcf79C332cB3Fe9d39A830a5f8de7cE6b1BD6fD1"],
      "transaction": {
        "from": "0xf2f1acbe0ba726fee8d75f3e32900526874740bb",
        "to": "0x0f38d8a5583f9316084e9c40737244870c565924",
        "gas": "0x99f6",
        "value": "0x0",
        "input": "0xf2fde38b000000000000000000000000dcf79c332cb3fe9d39a830a5f8de7ce6b1bd6fd1",
        "nonce": "0x3e",
        "chainId": "0x38"
      },
      "additionalContracts": [],
      "isFixedGasLimit": false
    }
  ],
  "receipts": [
    {
      "status": "0x1",
      "cumulativeGasUsed": "0x1207787",
      "logs": [
        {
          "address": "0xb6807116b3b1b321a390594e31ecd6e0076f6278",
          "topics": [
            "0x2f8788117e7eff1d82e926ec794901d17c78024a50270940304540a733656f0d",
            "0x0000000000000000000000000000000000000000000000000000000000000000",
            "0x000000000000000000000000dcf79c332cb3fe9d39a830a5f8de7ce6b1bd6fd1",
            "0x000000000000000000000000f2f1acbe0ba726fee8d75f3e32900526874740bb"
          ],
          "data": "0x",
          "blockHash": "0x838889b263f5ef253ec05a7a2f0ded9761110436e8cb8e1cec34d5fa809955c6",
          "blockNumber": "0x3d020cf",
          "transactionHash": "0x483f2506b55c264cf7f98b9279ea8429c55b0d8e5c48c24e3d0035ae27da6b5e",
          "transactionIndex": "0x6c",
          "logIndex": "0x244",
          "removed": false
        }
      ],
      "logsBloom": "0x00000004000000000000000020000000000000000000000400000000040000000000000000000000000000000000200000000000000000000000000000000000000000000000000000000000000000010000000000000000000000000000000000000000020000000000000000000800000000000000000000000000000000000000000080000000040000000000000000000000000000000000000000000000000000000000000000000000000000040000000000000000001400000000000000000000000000000000000000000000000000000000000100000000000020000000000000000000000000000000000000000000000000000000000000000000",
      "type": "0x0",
      "transactionHash": "0x483f2506b55c264cf7f98b9279ea8429c55b0d8e5c48c24e3d0035ae27da6b5e",
      "transactionIndex": "0x6c",
      "blockHash": "0x838889b263f5ef253ec05a7a2f0ded9761110436e8cb8e1cec34d5fa809955c6",
      "blockNumber": "0x3d020cf",
      "gasUsed": "0xda6c",
      "effectiveGasPrice": "0x2faf080",
      "from": "0xf2f1acbe0ba726fee8d75f3e32900526874740bb",
      "to": "0xb6807116b3b1b321a390594e31ecd6e0076f6278",
      "contractAddress": null
    },
    {
      "status": "0x1",
      "cumulativeGasUsed": "0x1799b40",
      "logs": [
        {
          "address": "0xb6807116b3b1b321a390594e31ecd6e0076f6278",
          "topics": [
            "0xf6391f5c32d9c69d2a47ea670b442974b53935d1edc7fd64eb21e047a839171b",
            "0x0000000000000000000000000000000000000000000000000000000000000000",
            "0x000000000000000000000000f2f1acbe0ba726fee8d75f3e32900526874740bb",
            "0x000000000000000000000000f2f1acbe0ba726fee8d75f3e32900526874740bb"
          ],
          "data": "0x",
          "blockHash": "0x10dc52fba99706fa4f3f64d7590f39f9247d28885e149bc5aaf95c915ad7ed85",
          "blockNumber": "0x3d020d2",
          "transactionHash": "0x5492e48acb5287da0325858ebf2f6ccb130421e4acb5f511067ccb883156a4c6",
          "transactionIndex": "0x7a",
          "logIndex": "0x3cb",
          "removed": false
        }
      ],
      "logsBloom": "0x00000000000000000000000000000000000000000000000400000000040000000000000000000000000000000000200000200000000000000000000000000000000000000000000000000000000000010000000000000000000000000000000040000000020000000000000000000800000000000000000000000000000000000000000040000000040000000000000000000000000000000000000000000000000000000000000000000000000000000000000000000000000400000000000000000000000000000000000000000000000000000000000000000000000020000000000000000000000000000000000000000000000000000000000000000000",
      "type": "0x0",
      "transactionHash": "0x5492e48acb5287da0325858ebf2f6ccb130421e4acb5f511067ccb883156a4c6",
      "transactionIndex": "0x7a",
      "blockHash": "0x10dc52fba99706fa4f3f64d7590f39f9247d28885e149bc5aaf95c915ad7ed85",
      "blockNumber": "0x3d020d2",
      "gasUsed": "0x7353",
      "effectiveGasPrice": "0x2faf080",
      "from": "0xf2f1acbe0ba726fee8d75f3e32900526874740bb",
      "to": "0xb6807116b3b1b321a390594e31ecd6e0076f6278",
      "contractAddress": null
    },
    {
      "status": "0x1",
      "cumulativeGasUsed": "0x224b87a",
      "logs": [
        {
          "address": "0x0f38d8a5583f9316084e9c40737244870c565924",
          "topics": [
            "0x8be0079c531659141344cd1fd0a4f28419497f9722a3daafe3b4186f6b6457e0",
            "0x000000000000000000000000f2f1acbe0ba726fee8d75f3e32900526874740bb",
            "0x000000000000000000000000dcf79c332cb3fe9d39a830a5f8de7ce6b1bd6fd1"
          ],
          "data": "0x",
          "blockHash": "0xcd9bf78b60f1b1f279b067e2adc94e6880c66fd1a23f1cdd3ef89652b3c78349",
          "blockNumber": "0x3d020d5",
          "transactionHash": "0xd6be7b4a8b85b1cb6d5e8d72fc7b5f0ff3a9fc44e2ad8d26cb303bfac7630076",
          "transactionIndex": "0xe4",
          "logIndex": "0x42d",
          "removed": false
        }
      ],
      "logsBloom": "0x00000000000000000000000020000000000000000000000400800000000000000000000000000000000000000000200000000000000000000000000000000000002000000000000000000000000010000001000000000000000000000000000000000000000000000000000000000000000020000000000000000000000000400000000080000000000000000000000000000000000000000000000000000000000000000000000000000000000000040000000000000000000400000000000000000000000000000000000000000000000000000000000000000000000000000000000000000000000000000000000000000000000000000000000000000000",
      "type": "0x0",
      "transactionHash": "0xd6be7b4a8b85b1cb6d5e8d72fc7b5f0ff3a9fc44e2ad8d26cb303bfac7630076",
      "transactionIndex": "0xe4",
      "blockHash": "0xcd9bf78b60f1b1f279b067e2adc94e6880c66fd1a23f1cdd3ef89652b3c78349",
      "blockNumber": "0x3d020d5",
      "gasUsed": "0x6f78",
      "effectiveGasPrice": "0x2faf080",
      "from": "0xf2f1acbe0ba726fee8d75f3e32900526874740bb",
      "to": "0x0f38d8a5583f9316084e9c40737244870c565924",
      "contractAddress": null
    }
  ],
  "libraries": [],
  "pending": [],
  "returns": {},
  "timestamp": 1759978083,
  "chain": 56,
  "commit": "b978779"
}
